{
  "_format": "hh-sol-artifact-1",
  "contractName": "Razon",
  "sourceName": "contracts/Razon.sol",
  "abi": [
    {
      "inputs": [],
      "stateMutability": "nonpayable",
      "type": "constructor"
    },
    {
      "anonymous": false,
      "inputs": [
        {
          "indexed": false,
          "internalType": "address",
          "name": "buyer",
          "type": "address"
        },
        {
          "indexed": false,
          "internalType": "uint256",
          "name": "orderId",
          "type": "uint256"
        },
        {
          "indexed": false,
          "internalType": "uint256",
          "name": "itemId",
          "type": "uint256"
        }
      ],
      "name": "Buy",
      "type": "event"
    },
    {
      "anonymous": false,
      "inputs": [
        {
          "indexed": false,
          "internalType": "string",
          "name": "name",
          "type": "string"
        },
        {
          "indexed": false,
          "internalType": "uint256",
          "name": "cost",
          "type": "uint256"
        },
        {
          "indexed": false,
          "internalType": "uint256",
          "name": "quantity",
          "type": "uint256"
        }
      ],
      "name": "List",
      "type": "event"
    },
    {
      "inputs": [
        {
          "internalType": "uint256",
          "name": "_id",
          "type": "uint256"
        }
      ],
      "name": "buy",
      "outputs": [],
      "stateMutability": "payable",
      "type": "function"
    },
    {
      "inputs": [
        {
          "internalType": "uint256",
          "name": "",
          "type": "uint256"
        }
      ],
      "name": "items",
      "outputs": [
        {
          "internalType": "uint256",
          "name": "id",
          "type": "uint256"
        },
        {
          "internalType": "string",
          "name": "name",
          "type": "string"
        },
        {
          "internalType": "string",
          "name": "category",
          "type": "string"
        },
        {
          "internalType": "string",
          "name": "image",
          "type": "string"
        },
        {
          "internalType": "uint256",
          "name": "cost",
          "type": "uint256"
        },
        {
          "internalType": "uint256",
          "name": "rating",
          "type": "uint256"
        },
        {
          "internalType": "uint256",
          "name": "stock",
          "type": "uint256"
        }
      ],
      "stateMutability": "view",
      "type": "function"
    },
    {
      "inputs": [
        {
          "internalType": "uint256",
          "name": "_id",
          "type": "uint256"
        },
        {
          "internalType": "string",
          "name": "_name",
          "type": "string"
        },
        {
          "internalType": "string",
          "name": "_category",
          "type": "string"
        },
        {
          "internalType": "string",
          "name": "_image",
          "type": "string"
        },
        {
          "internalType": "uint256",
          "name": "_cost",
          "type": "uint256"
        },
        {
          "internalType": "uint256",
          "name": "_rating",
          "type": "uint256"
        },
        {
          "internalType": "uint256",
          "name": "_stock",
          "type": "uint256"
        }
      ],
      "name": "list",
      "outputs": [],
      "stateMutability": "nonpayable",
      "type": "function"
    },
    {
      "inputs": [
        {
          "internalType": "address",
          "name": "",
          "type": "address"
        }
      ],
      "name": "orderCount",
      "outputs": [
        {
          "internalType": "uint256",
          "name": "",
          "type": "uint256"
        }
      ],
      "stateMutability": "view",
      "type": "function"
    },
    {
      "inputs": [
        {
          "internalType": "address",
          "name": "",
          "type": "address"
        },
        {
          "internalType": "uint256",
          "name": "",
          "type": "uint256"
        }
      ],
      "name": "orders",
      "outputs": [
        {
          "internalType": "uint256",
          "name": "time",
          "type": "uint256"
        },
        {
          "components": [
            {
              "internalType": "uint256",
              "name": "id",
              "type": "uint256"
            },
            {
              "internalType": "string",
              "name": "name",
              "type": "string"
            },
            {
              "internalType": "string",
              "name": "category",
              "type": "string"
            },
            {
              "internalType": "string",
              "name": "image",
              "type": "string"
            },
            {
              "internalType": "uint256",
              "name": "cost",
              "type": "uint256"
            },
            {
              "internalType": "uint256",
              "name": "rating",
              "type": "uint256"
            },
            {
              "internalType": "uint256",
              "name": "stock",
              "type": "uint256"
            }
          ],
          "internalType": "struct Razon.Item",
          "name": "item",
          "type": "tuple"
        }
      ],
      "stateMutability": "view",
      "type": "function"
    },
    {
      "inputs": [],
      "name": "owner",
      "outputs": [
        {
          "internalType": "address",
          "name": "",
          "type": "address"
        }
      ],
      "stateMutability": "view",
      "type": "function"
    },
    {
      "inputs": [],
      "name": "withdraw",
      "outputs": [],
      "stateMutability": "nonpayable",
      "type": "function"
    }
  ],
  "bytecode": "0x608060405234801561001057600080fd5b50336000806101000a81548173ffffffffffffffffffffffffffffffffffffffff021916908373ffffffffffffffffffffffffffffffffffffffff16021790555061191e806100606000396000f3fe6080604052600436106100705760003560e01c80638da5cb5b1161004e5780638da5cb5b14610107578063bfb231d214610132578063d96a094a14610175578063eea8a7e81461019157610070565b80633ccfd60b14610075578063713d856b1461008c578063793b8c6d146100c9575b600080fd5b34801561008157600080fd5b5061008a6101ba565b005b34801561009857600080fd5b506100b360048036038101906100ae9190610dca565b6102e2565b6040516100c09190610e10565b60405180910390f35b3480156100d557600080fd5b506100f060048036038101906100eb9190610e57565b6102fa565b6040516100fe929190610fe0565b60405180910390f35b34801561011357600080fd5b5061011c610513565b604051610129919061101f565b60405180910390f35b34801561013e57600080fd5b506101596004803603810190610154919061103a565b610537565b60405161016c97969594939291906110b1565b60405180910390f35b61018f600480360381019061018a919061103a565b610711565b005b34801561019d57600080fd5b506101b860048036038101906101b3919061126a565b610bcd565b005b60008054906101000a900473ffffffffffffffffffffffffffffffffffffffff1673ffffffffffffffffffffffffffffffffffffffff163373ffffffffffffffffffffffffffffffffffffffff1614610248576040517f08c379a000000000000000000000000000000000000000000000000000000000815260040161023f906113ac565b60405180910390fd5b60008060009054906101000a900473ffffffffffffffffffffffffffffffffffffffff1673ffffffffffffffffffffffffffffffffffffffff164760405161028f906113fd565b60006040518083038185875af1925050503d80600081146102cc576040519150601f19603f3d011682016040523d82523d6000602084013e6102d1565b606091505b50509050806102df57600080fd5b50565b60026020528060005260406000206000915090505481565b600360205281600052604060002060205280600052604060002060009150915050806000015490806001016040518060e00160405290816000820154815260200160018201805461034a90611441565b80601f016020809104026020016040519081016040528092919081815260200182805461037690611441565b80156103c35780601f10610398576101008083540402835291602001916103c3565b820191906000526020600020905b8154815290600101906020018083116103a657829003601f168201915b505050505081526020016002820180546103dc90611441565b80601f016020809104026020016040519081016040528092919081815260200182805461040890611441565b80156104555780601f1061042a57610100808354040283529160200191610455565b820191906000526020600020905b81548152906001019060200180831161043857829003601f168201915b5050505050815260200160038201805461046e90611441565b80601f016020809104026020016040519081016040528092919081815260200182805461049a90611441565b80156104e75780601f106104bc576101008083540402835291602001916104e7565b820191906000526020600020905b8154815290600101906020018083116104ca57829003601f168201915b505050505081526020016004820154815260200160058201548152602001600682015481525050905082565b60008054906101000a900473ffffffffffffffffffffffffffffffffffffffff1681565b600160205280600052604060002060009150905080600001549080600101805461056090611441565b80601f016020809104026020016040519081016040528092919081815260200182805461058c90611441565b80156105d95780601f106105ae576101008083540402835291602001916105d9565b820191906000526020600020905b8154815290600101906020018083116105bc57829003601f168201915b5050505050908060020180546105ee90611441565b80601f016020809104026020016040519081016040528092919081815260200182805461061a90611441565b80156106675780601f1061063c57610100808354040283529160200191610667565b820191906000526020600020905b81548152906001019060200180831161064a57829003601f168201915b50505050509080600301805461067c90611441565b80601f01602080910402602001604051908101604052809291908181526020018280546106a890611441565b80156106f55780601f106106ca576101008083540402835291602001916106f5565b820191906000526020600020905b8154815290600101906020018083116106d857829003601f168201915b5050505050908060040154908060050154908060060154905087565b6000600160008381526020019081526020016000206040518060e00160405290816000820154815260200160018201805461074b90611441565b80601f016020809104026020016040519081016040528092919081815260200182805461077790611441565b80156107c45780601f10610799576101008083540402835291602001916107c4565b820191906000526020600020905b8154815290600101906020018083116107a757829003601f168201915b505050505081526020016002820180546107dd90611441565b80601f016020809104026020016040519081016040528092919081815260200182805461080990611441565b80156108565780601f1061082b57610100808354040283529160200191610856565b820191906000526020600020905b81548152906001019060200180831161083957829003601f168201915b5050505050815260200160038201805461086f90611441565b80601f016020809104026020016040519081016040528092919081815260200182805461089b90611441565b80156108e85780601f106108bd576101008083540402835291602001916108e8565b820191906000526020600020905b8154815290600101906020018083116108cb57829003601f168201915b50505050508152602001600482015481526020016005820154815260200160068201548152505090508060800151341015610958576040517f08c379a000000000000000000000000000000000000000000000000000000000815260040161094f906114be565b60405180910390fd5b60008160c001511161099f576040517f08c379a00000000000000000000000000000000000000000000000000000000081526004016109969061152a565b60405180910390fd5b60006040518060400160405280428152602001838152509050600260003373ffffffffffffffffffffffffffffffffffffffff1673ffffffffffffffffffffffffffffffffffffffff1681526020019081526020016000206000815480929190610a0890611579565b919050555080600360003373ffffffffffffffffffffffffffffffffffffffff1673ffffffffffffffffffffffffffffffffffffffff1681526020019081526020016000206000600260003373ffffffffffffffffffffffffffffffffffffffff1673ffffffffffffffffffffffffffffffffffffffff16815260200190815260200160002054815260200190815260200160002060008201518160000155602082015181600101600082015181600001556020820151816001019081610acf919061176d565b506040820151816002019081610ae5919061176d565b506060820151816003019081610afb919061176d565b506080820151816004015560a0820151816005015560c08201518160060155505090505060018260c00151610b30919061183f565b60016000858152602001908152602001600020600601819055507f1cbc5ab135991bd2b6a4b034a04aa2aa086dac1371cb9b16b8b5e2ed6b036bed33600260003373ffffffffffffffffffffffffffffffffffffffff1673ffffffffffffffffffffffffffffffffffffffff168152602001908152602001600020548460000151604051610bc093929190611873565b60405180910390a1505050565b60008054906101000a900473ffffffffffffffffffffffffffffffffffffffff1673ffffffffffffffffffffffffffffffffffffffff163373ffffffffffffffffffffffffffffffffffffffff1614610c5b576040517f08c379a0000000000000000000000000000000000000000000000000000000008152600401610c52906113ac565b60405180910390fd5b60006040518060e0016040528089815260200188815260200187815260200186815260200185815260200184815260200183815250905080600160008a8152602001908152602001600020600082015181600001556020820151816001019081610cc5919061176d565b506040820151816002019081610cdb919061176d565b506060820151816003019081610cf1919061176d565b506080820151816004015560a0820151816005015560c082015181600601559050507ffdbe2a012c10ec01592653978eaa09b5ca60b143a0e617505b2ebcbd911ec5b8878584604051610d46939291906118aa565b60405180910390a15050505050505050565b6000604051905090565b600080fd5b600080fd5b600073ffffffffffffffffffffffffffffffffffffffff82169050919050565b6000610d9782610d6c565b9050919050565b610da781610d8c565b8114610db257600080fd5b50565b600081359050610dc481610d9e565b92915050565b600060208284031215610de057610ddf610d62565b5b6000610dee84828501610db5565b91505092915050565b6000819050919050565b610e0a81610df7565b82525050565b6000602082019050610e256000830184610e01565b92915050565b610e3481610df7565b8114610e3f57600080fd5b50565b600081359050610e5181610e2b565b92915050565b60008060408385031215610e6e57610e6d610d62565b5b6000610e7c85828601610db5565b9250506020610e8d85828601610e42565b9150509250929050565b610ea081610df7565b82525050565b600081519050919050565b600082825260208201905092915050565b60005b83811015610ee0578082015181840152602081019050610ec5565b60008484015250505050565b6000601f19601f8301169050919050565b6000610f0882610ea6565b610f128185610eb1565b9350610f22818560208601610ec2565b610f2b81610eec565b840191505092915050565b600060e083016000830151610f4e6000860182610e97565b5060208301518482036020860152610f668282610efd565b91505060408301518482036040860152610f808282610efd565b91505060608301518482036060860152610f9a8282610efd565b9150506080830151610faf6080860182610e97565b5060a0830151610fc260a0860182610e97565b5060c0830151610fd560c0860182610e97565b508091505092915050565b6000604082019050610ff56000830185610e01565b81810360208301526110078184610f36565b90509392505050565b61101981610d8c565b82525050565b60006020820190506110346000830184611010565b92915050565b6000602082840312156110505761104f610d62565b5b600061105e84828501610e42565b91505092915050565b600082825260208201905092915050565b600061108382610ea6565b61108d8185611067565b935061109d818560208601610ec2565b6110a681610eec565b840191505092915050565b600060e0820190506110c6600083018a610e01565b81810360208301526110d88189611078565b905081810360408301526110ec8188611078565b905081810360608301526111008187611078565b905061110f6080830186610e01565b61111c60a0830185610e01565b61112960c0830184610e01565b98975050505050505050565b600080fd5b600080fd5b7f4e487b7100000000000000000000000000000000000000000000000000000000600052604160045260246000fd5b61117782610eec565b810181811067ffffffffffffffff821117156111965761119561113f565b5b80604052505050565b60006111a9610d58565b90506111b5828261116e565b919050565b600067ffffffffffffffff8211156111d5576111d461113f565b5b6111de82610eec565b9050602081019050919050565b82818337600083830152505050565b600061120d611208846111ba565b61119f565b9050828152602081018484840111156112295761122861113a565b5b6112348482856111eb565b509392505050565b600082601f83011261125157611250611135565b5b81356112618482602086016111fa565b91505092915050565b600080600080600080600060e0888a03121561128957611288610d62565b5b60006112978a828b01610e42565b975050602088013567ffffffffffffffff8111156112b8576112b7610d67565b5b6112c48a828b0161123c565b965050604088013567ffffffffffffffff8111156112e5576112e4610d67565b5b6112f18a828b0161123c565b955050606088013567ffffffffffffffff81111561131257611311610d67565b5b61131e8a828b0161123c565b945050608061132f8a828b01610e42565b93505060a06113408a828b01610e42565b92505060c06113518a828b01610e42565b91505092959891949750929550565b7f596f7520617265206e6f7420746865206f776e65720000000000000000000000600082015250565b6000611396601583611067565b91506113a182611360565b602082019050919050565b600060208201905081810360008301526113c581611389565b9050919050565b600081905092915050565b50565b60006113e76000836113cc565b91506113f2826113d7565b600082019050919050565b6000611408826113da565b9150819050919050565b7f4e487b7100000000000000000000000000000000000000000000000000000000600052602260045260246000fd5b6000600282049050600182168061145957607f821691505b60208210810361146c5761146b611412565b5b50919050565b7f416d6f756e74206973206c657373207468616e206974656d2070726963650000600082015250565b60006114a8601e83611067565b91506114b382611472565b602082019050919050565b600060208201905081810360008301526114d78161149b565b9050919050565b7f4974656d206973206f7574206f662073746f636b000000000000000000000000600082015250565b6000611514601483611067565b915061151f826114de565b602082019050919050565b6000602082019050818103600083015261154381611507565b9050919050565b7f4e487b7100000000000000000000000000000000000000000000000000000000600052601160045260246000fd5b600061158482610df7565b91507fffffffffffffffffffffffffffffffffffffffffffffffffffffffffffffffff82036115b6576115b561154a565b5b600182019050919050565b60008190508160005260206000209050919050565b60006020601f8301049050919050565b600082821b905092915050565b6000600883026116237fffffffffffffffffffffffffffffffffffffffffffffffffffffffffffffffff826115e6565b61162d86836115e6565b95508019841693508086168417925050509392505050565b6000819050919050565b600061166a61166561166084610df7565b611645565b610df7565b9050919050565b6000819050919050565b6116848361164f565b61169861169082611671565b8484546115f3565b825550505050565b600090565b6116ad6116a0565b6116b881848461167b565b505050565b5b818110156116dc576116d16000826116a5565b6001810190506116be565b5050565b601f821115611721576116f2816115c1565b6116fb846115d6565b8101602085101561170a578190505b61171e611716856115d6565b8301826116bd565b50505b505050565b600082821c905092915050565b600061174460001984600802611726565b1980831691505092915050565b600061175d8383611733565b9150826002028217905092915050565b61177682610ea6565b67ffffffffffffffff81111561178f5761178e61113f565b5b6117998254611441565b6117a48282856116e0565b600060209050601f8311600181146117d757600084156117c5578287015190505b6117cf8582611751565b865550611837565b601f1984166117e5866115c1565b60005b8281101561180d578489015182556001820191506020850194506020810190506117e8565b8683101561182a5784890151611826601f891682611733565b8355505b6001600288020188555050505b505050505050565b600061184a82610df7565b915061185583610df7565b925082820390508181111561186d5761186c61154a565b5b92915050565b60006060820190506118886000830186611010565b6118956020830185610e01565b6118a26040830184610e01565b949350505050565b600060608201905081810360008301526118c48186611078565b90506118d36020830185610e01565b6118e06040830184610e01565b94935050505056fea2646970667358221220fd3148b22a332dd8bbd3d2db25efb0f4d2b3bcd4d44686dbbd1346929fe6dedc64736f6c63430008110033",
  "linkReferences": {},
  "deployedLinkReferences": {}
}